:020000040800F2
:1000000090640020E10100089F1A0008091600080A
:100010009B1A000849140008C125000800000000D0
:10002000000000000000000000000000490100087E
:1000300091140008000000008D0100085D220008F6
:10004000FB010008FB010008FB010008FB010008A0
:10005000FB010008FB010008FB010008FB01000890
:10006000FB010008FB010008FB010008FB01000880
:10007000FB010008FB010008FB010008FB01000870
:10008000FB010008FB0100087D0A0008FB010008D5
:10009000FB010008FB010008FB010008FB01000850
:1000A000FB010008FB010008FB010008FB01000840
:1000B000FB010008FB010008FB010008FB01000830
:1000C000FB010008FB010008FB010008FB01000820
:1000D000FB010008FB010008FB010008FB01000810
:1000E000FB010008FB010008FB010008FB01000800
:1000F000FB010008FB010008FB010008FB010008F0
:10010000FB010008FB010008FB010008FB010008DF
:10011000FB010008FB010008FB010008FB010008CF
:10012000FB010008FB010008FB010008FB010008BF
:10013000DFF810D000F080FC00480047A131000833
:10014000AFF3008090640020224B19680868B0E883
:10015000F00F80F30988BFF36F8F4FF0000080F33A
:1001600011884EF00D0E7047000000000648006830
:10017000006880F3088862B661B6BFF34F8FBFF3A3
:100180006F8F00DF00BF00BF08ED00E0EFF30980D4
:10019000BFF36F8F0F4B1A6820E9F00F106008B59E
:1001A0004FF0BF0080F31188BFF34F8FBFF36F8F05
:1001B00003F056FF4FF0000080F31188BDE80840BF
:1001C00019680868B0E8F00F80F30988BFF36F8FF3
:1001D000704700BF5C000020EFF30580704700000F
:1001E0000648804706480047FEE7FEE7FEE7FEE7D1
:1001F000FEE7FEE7FEE7FEE7FEE7FEE76D2200080A
:100200003101000840EA01039B0703D009E008C957
:10021000121F08C0042AFAD203E011F8013B00F8CB
:10022000013B521EF9D27047D2B201E000F8012B17
:10023000491EFBD270470022F6E710B513460A4666
:1002400004461946FFF7F0FF204610BDF0B480EADF
:100250000102D40F4200B2EB410F02D2024608461F
:1002600011464A0042D0C30DDDB2C1F3C752AD1AE8
:10027000202D35DAC1F3160141F4000204B15242D7
:10028000C5F1200602FA06F12A411044B3EBD05F13
:1002900023D0C4B1012DA0EBC35009DCF0BC4FF05A
:1002A000004202EAC352DBB200F5000000F009BBD5
:1002B000400000F1807000EBC350A0F1807040EA74
:1002C000D170490009E0490841EAC071A0EBC35070
:1002D00000F50000400800EBC350F0BC00F0E8BAA5
:1002E0006142012202EB4101001BF6E7F0BC7047BE
:1002F00081F00041AAE780F00040A7E780EA010210
:1003000010B502F00043400022D04A001FD0010E79
:1003100001EB1261C0F35600C2F3560240F4000034
:1003200042F40002A0FB022000047F39140400D034
:10033000401C50EA124001D44000491EC2B20C06D3
:1003400004EBD010401C4008802A02D003E00020BB
:1003500010BD20F00100002900DA0020184310BD74
:1003600030B480EA010202F0004530F0004221F092
:10037000004013D090B1C30DD40DC2F31601C0F3E9
:100380001600E41A41F4000140F400027D34914269
:1003900001D3641C00E04900002C02DA30BC0020CC
:1003A00070474FF400000023914201D3891A0343A0
:1003B00040084FEA4101F7D151B1914202D14FF0CB
:1003C000004105E002D24FF0010101E06FF00101B0
:1003D00003EBC450284430BC00F06ABA2DE9FE4F4C
:1003E000804681EA0300C00F0C46009021F00041D6
:1003F00023F00045B8EB0200A94105D24046214652
:1004000090461C460B46024623F00040104347D05E
:10041000270DC7F30A00C3F30A510290401A019056
:1004200040286BDAC3F3130040F4801B0098924617
:1004300020B10023D2EB030A63EB0B0B0198594662
:10044000C0F14002504600F012FA06460D465046F2
:100450005946019A00F01AFA10EB08006141002495
:1004600087EA115284EAE7731A4340D0009A62B3D4
:10047000019A012A4FEA075215DC001B61EB0201C9
:100480004FF0004202EA0752CDE90042001C41F55C
:10049000801132462B4600F051FA03B0BDE8F08FD0
:1004A00040462146F9E7001B61EB0201001C41F5C3
:1004B000801300185B412018A2F5001747EB0301D9
:1004C00040EAD570B6196D4111E06D084FEA360665
:1004D00045EAC0754FEA0752001B61EB0201001CA0
:1004E00041F5801149084FEA300000195141324668
:1004F0002B4603B0BDE8F04F00F011BA009801227E
:1005000040000023D0EB020263EBE0730098214629
:100510004FEAE074B8EB000061EB0401E9E783F017
:1005200000435BE781F0004158E72DE9FE4F81EA87
:10053000030404F0004421F0004100944FF0000B4C
:1005400023F0004350EA01045ED052EA03045BD07A
:10055000C3F30A54C1F30A552C44A4F2F3340194B2
:10056000A0FB0254C1F3130141F48011C3F3130340
:1005700043F4801301FB024400FB034E840A970AF4
:1005800044EA815447EA8357A4FB076802958D0A21
:1005900005FB07854FEA932C04FB0C542705029DAD
:1005A0004FEA065847EA1637B5EB08056EEB070C1D
:1005B000870E920E47EA811742EA8312A7FB0201D7
:1005C000B6EB0B0164EB00042B0D43EA0C335E1811
:1005D00044EB1C50DA465146E7FB0201C5F3130415
:1005E0004FEA0B3343EA14534FEA0432019C43EAC7
:1005F0000603A4F10C040294009CCDE900B400F0C1
:100600009DF903B0BDE8F08F00200146F9E72DE920
:10061000F04D81EA030404F0004B21F0004514463C
:100620004FF0000A23F0004150EA050220D054EABE
:1006300001021DD0C5F30A570246C5F31303C1F3E7
:100640001300C1F30A5640F4801543F48013A7EB5E
:100650000608101BD64608F2FD3873EB050002D3DE
:1006600008F1010801E092185B41B8F1000F03DACC
:1006700000200146BDE8F08D00204FF480110646B1
:1006800084460EE0171B73EB050705D3121B63EBC3
:10069000050306434CEA010C49084FEA3000921862
:1006A0005B4150EA0107EDD152EA030012D082EA21
:1006B000040083EA0501084305D0101BAB4106D2B4
:1006C0000122002306E000224FF0004302E06FF019
:1006D000010253101AEB06004CEB085110EB0A0014
:1006E00041EB0B01BDE8F04D00F019B99623002253
:1006F000114600F0E6B80EB5C10F80EAE07008447C
:10070000CA07002140F233438DE80E000A460B462B
:1007100000F014F903B000BD0EB540F23341029170
:100720000021CDE900110A460B4600F007F903B09D
:1007300000BD20F00040C10DC0F3160040F40000E1
:100740007F2901DA00207047962903DCC1F1960168
:10075000C840704796398840704700F0004230F03A
:1007600000400AD0C10D01F56071C0F3160042EAE5
:100770000151C208400711437047002001467047ED
:1007800001F0004330B421F0004150EA010206D0EC
:100790000A0DA2F56072C1F31301002A02DC30BC1D
:1007A00000207047440F44EAC104C100E01830BC87
:1007B00000EBC25000F07CB8002801DBC0F1004023
:1007C000002901DBC1F1004181427047002801DBB3
:1007D000C0F10040002901DBC1F1004188427047AF
:1007E00030B50B46014600202022012409E021FA01
:1007F00002F59D4205D303FA02F5491B04FA02F5FE
:100800002844151EA2F10102F1DC30BD2DE9F05F94
:100810000546002092469B4688460646814640246F
:100820001BE0284641464746224600F017F953464A
:100830005A46C01A914110D311461846224600F07C
:1008400016F82D1A67EB01084F46224601200021B9
:1008500000F00DF817EB00094E41201EA4F1010431
:10086000DFDC484631462A464346BDE8F09F202A51
:1008700004DB203A00FA02F1002070479140C2F1F7
:10088000200320FA03F3194390407047202A06DB27
:10089000CB17203A41FA02F043EAE07306E041FA4E
:1008A00002F3D040C2F1200291400843194670473C
:1008B0000029A8BF7047401C490008BF20F0010074
:1008C000704710B4B0FA80FC00FA0CF050EA010452
:1008D00004BF10BC704749B1CCF1200421FA04F4E4
:1008E00011FA0CF118BF012121430843A3EB0C01BD
:1008F000CB1D4FEA00614FEA102042BF002010BC20
:10090000704700EBC35010440029A4BF10BC7047CF
:10091000401C490008BF20F0010010BC704710B512
:10092000141E73F1000408DA401C41F10001921812
:100930005B411A4301D120F0010010BD2DE9F04DBB
:1009400092469B4611B1B1FA81F202E0B0FA80F210
:1009500020329046FFF78BFF04460F4640EA0A001C
:1009600041EA0B0153465A46084313D0114653EA55
:10097000010019D0C8F14002504600F06FF805465A
:100980000E46504659464246FFF771FF084305D0D0
:10099000012004E020463946BDE8F08D00200543E3
:1009A00046EAE0762C4337430A986305E40AA0EB55
:1009B00008000022FD0A44EA47540A3002D500200C
:1009C0000146E9E7010510196941DDE9084500190B
:1009D0006941BDE8F04DA2E7C1F30A52C1F313012A
:1009E00040F2FF3341F480119A4202DA00200146BE
:1009F000704740F233439A42A2F2334202DC524241
:100A000000F02CB8FFF733BF30B5041E71F10004BD
:100A100004DB4FF00044404264EB0101141E73F10B
:100A2000000405DB1C464FF00043524263EB040315
:100A3000994208BF904230BD064C074D06E0E06881
:100A400040F0010394E8070098471034AC42F6D315
:100A5000FFF772FB484B0008684B0008202A04DBB4
:100A6000203A21FA02F00021704721FA02F3D04027
:100A7000C2F1200291400843194670472DE9F04722
:100A80004FF40871124800F0BBF8012818D1104843
:100A900000F0B2F88246FFF729FE81464FF08B4105
:100AA000FFF75EFC0446FFF758FE07464FF066323C
:100AB000084BFFF73AFD0546FFF762FE064908605E
:100AC0004FF40871024800F009F8BDE8F087000013
:100AD0000024014066660A401800002000220A1225
:100AE000D3430360704721B1826842F00102826003
:100AF00003E0826822F001028260704700B585B091
:100B00000121084601F0A4F80121480201F0B0F8E3
:100B10004FF4004001F090F81A4800F035F800F06A
:100B20000DF9002000908DF8040001208DF80500DB
:100B30004FF4602002900020039001208DF81000F7
:100B40006946104800F0D2F801224FF408710D48B0
:100B500000F072F801210B48FFF7C5FF094800F0CB
:100B60005CF900BF074800F05DF80028FAD105489D
:100B700000F063F900BF034800F034F80028FAD110
:100B800005B000BD0024014010B50446124884425F
:100B900008D10121401501F07BF80021601501F01A
:100BA00077F817E00D48844208D10121001501F0C3
:100BB0006FF80021201501F06BF80BE00848844223
:100BC00008D10121C80301F063F800214FF400406F
:100BD00001F05EF810BD0000002401400028014033
:100BE000003C0140014600208A6802F004020AB17C
:100BF000012000E0002070470146C86C80B27047B9
:100C000070B502460020002300240B125568CEB2B6
:100C100005EA060415681D4015B10CB1012000E07D
:100C2000002070BD014600208A6802F008020AB167
:100C3000012000E00020704710B50023CBB21AB1AC
:100C400044681C43446002E044689C43446010BD17
:100C50002DE9F0470446214D0027052301222146B6
:100C60001F4800F07EF84FF0000823E001211C48E7
:100C700000F0D8F81B4801683846FFF7A7FD01D2FD
:100C8000384601E0174800680746164801682846BC
:100C9000FFF792FD01D2284601E0124800680546A0
:100CA000104801684846FFF7D1FA814608F1010073
:100CB00000F0FF08B8F1050FD8DB39464846FFF7CA
:100CC00017FB82462946FFF713FB80460649FFF7CC
:100CD00047FB06463046BDE8F087000000F07F4540
:100CE00000240140180000200000404030B50246BA
:100CF0000020002350680F4C20400D790C6844EA16
:100D000005242043506090680B4C2040D1E90254E8
:100D10002C434D7944EA450420439060D06A20F486
:100D200070000C7C641EE4B2234340EA0350D0629E
:100D300030BD0000FFFEF0FFFDF7F1FF08B54FF4F6
:100D4000C06000F0E5FE12208DF8000001208DF853
:100D500001008DF802008DF80300684600F0A0FE47
:100D600008BDF0B504460D4600200021092D11DD17
:100D7000E068A5F10A0606EB4607072606FA07F122
:100D80008843A5F10A0606EB460603FA06F1084376
:100D9000E0600CE0206905EB4507072606FA07F13D
:100DA000884305EB450603FA06F108432061072A4C
:100DB0000FDA606B561E06EB86071F2606FA07F150
:100DC0008843561E06EB860605FA06F10843606363
:100DD00022E00D2A0FDA206BD61F06EB86071F26AE
:100DE00006FA07F18843D61F06EB860605FA06F1D8
:100DF0000843206310E0E06AA2F10D0606EB8607C7
:100E00001F2606FA07F18843A2F10D0606EB8606B7
:100E100005FA06F10843E062F0BD816841F008017F
:100E20008160704721B1826842F4A002826003E0D1
:100E3000826822F4A00282607047816841F0040158
:100E40008160704708B50121042000F011FF0020E7
:100E50008DF80300FF20ADF800006946084800F057
:100E60003BFB0320ADF800006946064800F034FB68
:100E70003F20ADF800006946034800F02DFB08BD97
:100E800000080140000C01400010014010B5FFF7C0
:100E9000D9FFFFF733FE10BD3EB5012402F036FF47
:100EA00003F01EF93D4908600846006810B13CA0F7
:100EB00001F0BCFB1F213948006803F001F93F48ED
:100EC0003F490A220023CDE90021029040223DA1A2
:100ED0003F4803F01BFC3F4908600846006818B112
:100EE0003DA001F0A3FB02E041A001F09FFB4648BA
:100EF000082100238022CDE9001044A1494803F0D5
:100F0000D3FB0446012C03D147A001F08FFB02E084
:100F10004FA001F08BFB5848052100238022CDE92A
:100F2000001056A15D4803F0BFFB0446012C03D11D
:100F30005BA001F07BFB02E064A001F077FB6E4850
:100F4000042100238022CDE900106CA1734803F036
:100F5000ABFB0446012C03D171A001F067FB02E05A
:100F60007AA001F063FB8448062100238022CDE9AA
:100F7000001082A1884803F097FB0446012C03D19E
:100F800086A001F053FB02E08FA001F04FFB9948CF
:100F9000006802F061FF02F0CBFE3EBD1C000020A5
:100FA0004576656E745F48616E646C6520CAC2BC2C
:100FB000FEB4B4BDA8B3C9B9A6A3A100DC07002044
:100FC000B00500204B45595F5461736B0000000071
:100FD0009D160008240000204B45595F5461736B37
:100FE000C8CECEF1B4B4BDA8B3C9B9A6210A0000D9
:100FF0004B45595F5461736BC8CECEF1B4B4BDA8F4
:10100000CAA7B0DC210A0000340000204272616BE4
:10101000655F4F696C5F50726573737572655F547D
:1010200061736B00A51300084272616B655F4F69C5
:101030006C5F50726573737572655F5461736BC8D2
:10104000CECEF1B4B4BDA8B3C9B9A6210D0A000033
:101050004272616B655F4F696C5F50726573737547
:1010600072655F5461736BC8CECEF1B4B4BDA8CACB
:10107000A7B0DC210D0A000030000020537573700A
:10108000656E73696F6E5F446973706C6163656DE3
:10109000656E745F5461736B00000000712100087D
:1010A00053757370656E73696F6E5F446973706CAE
:1010B0006163656D656E745F5461736BC8CECEF10C
:1010C000B4B4BDA8B3C9B9A6210D0A005375737095
:1010D000656E73696F6E5F446973706C6163656D93
:1010E000656E745F5461736BC8CECEF1B4B4BDA8A5
:1010F000CAA7B0DC210D0A002C00002054687265DC
:10110000655F417869735F416363656C65726174A3
:10111000696F6E5F5461736B00000000CD220008A0
:1011200054687265655F417869735F416363656C9C
:1011300065726174696F6E5F5461736BC8CECEF176
:10114000B4B4BDA8B3C9B9A6210D0A00546872652C
:10115000655F417869735F416363656C6572617453
:10116000696F6E5F5461736BC8CECEF1B4B4BDA825
:10117000CAA7B0DC210D0A00280000204272616B72
:10118000655F446973635F54656D70657261747502
:1011900072655F5461736B00291200084272616BC3
:1011A000655F446973635F54656D706572617475E2
:1011B00072655F5461736BC8CECEF1B4B4BDA8B391
:1011C000C9B9A6210D0A00004272616B655F4469CE
:1011D00073635F54656D70657261747572655F5499
:1011E00061736BC8CECEF1B4B4BDA8CAA7B0DC2180
:1011F0000D0A00002000002010B54FF4A06000F0A0
:1012000087FC482000F046F9FFF740FE01F0F8F8AF
:1012100000F0BEFD01F0F6FE00F0ACFB00F05AFB62
:1012200000F002FA10BD000008B54FF480703A4992
:101230000860032001F0A6FE4FF480703649091FB4
:10124000086068E04FF0FF30012300220221009087
:101250003248006802F09CFF044604F002000228B5
:1012600059D12FA001F0E2F9342000F009FE074621
:10127000FFF773FA05462A460B462FA001F0D6F970
:10128000342000F021FE0746FFF767FA05462A469C
:101290000B4630A001F0CAF9642002F0C3FD35A06E
:1012A00001F0C4F9352000F0EBFD0746FFF755FAD1
:1012B00005462A460B4620A001F0B8F9352000F07B
:1012C00003FE0746FFF749FA05462A460B4621A0CA
:1012D00001F0ACF9642002F0A5FD2CA001F0A6F904
:1012E000362000F0CDFD0746FFF737FA05462A46BF
:1012F0000B4611A001F09AF9362000F0E5FD0746F3
:10130000FFF72BFA05462A460B4612A001F08EF98C
:10131000642002F087FD95E7141401401C000020B2
:10132000BAECCDE2CFDFCEC2B6C8B4ABB8D0C6F708
:101330002D310D0A00000000426F64795F74656D05
:10134000706F726174757265203D202566200D0AEC
:1013500000000000456E7669726F6D656E745F7493
:10136000656D706F726174757265203D2025662011
:101370000D0A0000BAECCDE2CFDFCEC2B6C8B4ABE6
:10138000B8D0C6F72D320D0A00000000BAECCDE24D
:10139000CFDFCEC2B6C8B4ABB8D0C6F72D330D0A76
:1013A000000000001CB54FF07E592CE04FF0FF30DC
:1013B00001230022194600901348006802F0E8FE5D
:1013C000044604F00100D0B1002000F0ABFB8246DF
:1013D000012000F0A7FB81464846FFF7BEF905460D
:1013E0000E465046FFF7B9F907463A460B4607A0A6
:1013F000CDE9005601F01AF911A001F017F94FF4E8
:101400007A7002F00FFDD1E71C0000202050434D00
:10141000333030442076616C756531203D20252EB7
:101420003266204D50612C2076616C756532203D0E
:1014300020252E3266204D5061200D0A000000004C
:101440000D0A0D0A0000000000BFFEE71FB54FF4B3
:10145000E13000900020ADF80C000C20ADF80A003F
:101460000020ADF80800ADF80600ADF804006946AC
:10147000064801F025F8012240F22551034800F00A
:10148000F9FF0121014800F0AFFF1FBD0038014006
:101490007047000070B50446042000F0CBFE0C48F5
:1014A000047025464FF47A704543012009490880AD
:1014B0004FF0E020006940F002004FF0E0210861A9
:1014C00008464561006940F00100086170BD0000F8
:1014D0003A0000203C0000202DE9F04102460025A2
:1014E0000026002000230024002791F803C00CF000
:1014F0000F0591F803C00CF0100CBCF1000F03D0E5
:1015000091F802C04CEA050591F800C0BCF1000F4B
:1015100031D0146800202BE04FF0010C0CFA00F3DE
:10152000B1F800C00CEA03069E4220D183004FF0C0
:101530000F0C0CFA03F7BC4305FA03FC4CEA040455
:1015400091F803C0BCF1280F06D14FF0010C0CFA42
:1015500000FCC2F814C00AE091F803C0BCF1480FC7
:1015600005D14FF0010C0CFA00FCC2F810C0401C71
:101570000828D1D31460B1F800C0BCF1FF0F34DDEE
:10158000546800202EE000F1080C4FF0010808FA22
:101590000CF3B1F800C00CEA03069E4221D183008F
:1015A0004FF00F0C0CFA03F7BC4305FA03FC4CEAAE
:1015B000040491F803C0BCF1280F05D100F1080C18
:1015C00008FA0CF8C2F8148091F803C0BCF1480F77
:1015D00007D100F1080C4FF0010808FA0CF8C2F826
:1015E0001080401C0828CED35460BDE8F08102462C
:1015F000002093680B400BB1012000E000207047F1
:10160000416170470161704702A001F00FF800BF0F
:10161000FEE7000048616E646C65722065726F724F
:1016200072210D0A0000000008B501217C2000F0A5
:101630001FFB48208DF803004FF48070ADF80000C8
:1016400069461148FFF748FF4FF48070ADF800007D
:1016500069460E48FFF740FF4FF40050ADF8000018
:1016600069460B48FFF738FF4FF48060ADF8000083
:1016700069460848FFF730FF4020ADF80000694692
:101680000548FFF729FF08BD00080140000C014094
:101690000010014000140140001801406EE0FF20DE
:1016A00037490870002000F089F83549087008466D
:1016B000007830B101281AD002282ED0032858D142
:1016C00041E008212F48FFF79BFFF0212D48FFF74D
:1016D00099FF1F212C48006802F0F2FC01212A48E2
:1016E000006802F00CFD29A000F0A0FF42E01021EC
:1016F0002448FFF785FFE8212248FFF783FF1F21D9
:101700002148006802F0DCFC02211F48006802F05A
:10171000F6FC21A000F08AFF2CE020211948FFF7F9
:101720006FFFD8211748FFF76DFF1F21164800688B
:1017300002F0C6FC04211448006802F0E0FC19A085
:1017400000F074FF16E040210E48FFF759FFB82162
:101750000C48FFF757FF1F210B48006802F0B0FC50
:1017600008210948006802F0CAFC11A000F05EFFE1
:1017700000E000BF00BF642002F054FB8FE70000D0
:1017800038000020001401401C0000200D0A20B089
:10179000B4BCFC300D0A00000D0A20B0B4BCFC3112
:1017A0000D0A00000D0A20B0B4BCFC320D0A000086
:1017B0000D0A20B0B4BCFC330D0A000010B504467D
:1017C000012C01D13B4908703A48007801284DD1DD
:1017D00001023948FFF70BFFB8B14FF48071374869
:1017E000FFF705FF88B14FF400513548FFF7FFFEC2
:1017F00058B14FF480613348FFF7F9FE28B140211A
:101800003148FFF7F4FE002851D1142001F074FB99
:101810000020284908704FF480712748FFF7E7FE41
:1018200008B9002010BD4FF480712448FFF7DFFE97
:1018300008B90120F6E74FF400512148FFF7D7FE21
:1018400008B90220EEE74FF480611E48FFF7CFFE93
:1018500008B90320E6E740211B48FFF7C8FE08B996
:101860000420DFE719A000F0E1FE20E04FF48071D2
:101870001148FFF7BCFE012819D101020F48FFF7FC
:10188000B6FE012813D141030D48FFF7B0FE012831
:101890000DD181020B48FFF7AAFE012807D1402194
:1018A0000948FFF7A4FE012801D102490870FF2072
:1018B000B8E700001400002000080140000C0140BF
:1018C0000010014000140140001801400D0A2033AF
:1018D000200D0A0008B50121202000F0C9F91020D0
:1018E0008DF80300F820ADF8000069460348FFF7C3
:1018F000F3FDF8210148FFF785FE08BD0014014003
:101900001CB50446062269463B2000F059F89DF8B4
:1019100001009DF8001040EA012000B220809DF8EF
:1019200003009DF8021040EA012000B260809DF89B
:1019300005009DF8041040EA012000B2A0801CBD03
:1019400008B50121402000F093F91020ADF8000007
:1019500003208DF8020010208DF80300694604482A
:10196000FFF7BAFD10210248FFF74CFE08BD00004A
:101970000018014070B500240025FFF7E1FF00BF0B
:1019800006E0002500E06D1CB5F57A7FFBDB641CEA
:10199000B4F57A7FF5DB00216B2000F067F80721B2
:1019A000192000F063F806211A2000F05FF80021EA
:1019B0001C2000F05BF818211B2000F057F870BDC8
:1019C0002DE9F04107460C46154601F09DFBD2205B
:1019D00001F06CFB01F0C4FB384601F067FB01F03D
:1019E000BFFB01F091FBD32001F060FB01F0B8FBDD
:1019F000002606E0012001F031FB2070641C701C01
:101A0000C6B2681EB042F5DC002001F027FB207052
:101A100001F094FBBDE8F0812DE9F84F82460222E7
:101A200069464120FFF7CCFF9DF801009DF80010AA
:101A300040EA01200FFA80FB5846FEF75CFE804624
:101A40000022074BFEF7E3FD0646064A064BFEF76B
:101A5000C5FC0446FEF794FECAF80000BDE8F88F06
:101A600000407540A4703D0AD743424070B505461A
:101A70000C4601F049FBD22001F018FB01F070FB8D
:101A8000284601F013FB01F06BFB204601F00EFB32
:101A900001F066FB01F052FB70BD00BFFEE770472E
:101AA00070B5002100230F22C47804B3154C2468BC
:101AB00004F4E064C4F5E064210AC1F10403CA40FF
:101AC000447804FA03F184781440214309010E4C50
:101AD0000678A155047804F01F050124AC40057870
:101AE0006D11AD0005F1E025C5F8004109E004786D
:101AF00004F01F050124AC40044D0678761145F82A
:101B0000264070BD0CED00E000E400E080E100E064
:101B100002490143024A1160704700000000FA05C3
:101B20000CED00E02DE9F14F82B000200190009013
:101B30000298FFF78DF801900198FEF70EFE80469F
:101B400000220A4BFEF7F1FC06464FF06632084BC6
:101B5000FEF75DFD0446074A074BFEF7E0FC8246B0
:101B6000FEF70EFE00900098BDE8FE8F00003940A1
:101B700066660A407B14AE47E17AA43FFCB5024694
:101B80002F2300BF00208DF805008DF804008DF88C
:101B900003008DF8020001208DF8010007208DF868
:101BA00000002F2300250521002409E0581EC3B2A0
:101BB000072C02DA601CC4B202E00024481EC1B245
:101BC000505C80272741384008B90029EEDCA3F19A
:101BD0000800C5B21EE0052118E0481E1DF80000EF
:101BE00000F0800018B1002901DD012600E0002688
:101BF0001DF801004006000E0DF801001DF801005F
:101C00003044C0B20DF80100481EC1B2FF29E4DB28
:101C1000681EC5B2002DDED1002106E0505C1DF823
:101C2000017078405054481CC1B20529F6DD082BDC
:101C3000A8DC1078FCBD000001460020034A506873
:101C400020F44040084350607047000000100240FC
:101C500029B1064A52690243044B5A6104E0034A1F
:101C600052698243014B5A617047000000100240E4
:101C700029B1064A92690243044B9A6104E0034A7F
:101C800092698243014B9A61704700000010024044
:101C900029B1064AD2680243044BDA6004E0034AE1
:101CA000D2688243014BDA607047000000100240A6
:101CB00030B500210022002400232D4D6D6805F071
:101CC0000C0121B1042905D0082923D105E0294DB3
:101CD000056022E0274D05601FE0254D6D6805F485
:101CE0007012234D6D6805F48034022505EB924295
:101CF0001CB9214D554305600BE01D4D6D6805F481
:101D000000351DB11C4D5543056002E0194D55438A
:101D1000056002E0174D056000BF00BF144D6D68FF
:101D200005F0F0010909154D6B5C0568DD40456063
:101D30000F4D6D6805F4E061090A104D6B5C456854
:101D4000DD4085600A4D6D6805F46051C90A0B4D90
:101D50006B5C4568DD40C560054D6D6805F440412C
:101D6000890B074D6B5CC568B5FBF3F5056130BDAC
:101D70000010024000127A0000093D00000000201F
:101D80001000002010B50446204601F0D7F810BD21
:101D900008B501210820FFF76BFF4FF44070ADF844
:101DA000000014208DF8030003208DF8020069461E
:101DB0000548FFF791FB4FF480700349103108602C
:101DC0004000086008BD0000001401402DE9FC5FE0
:101DD00004460D464FF00009CA46CB466006040E85
:101DE00000BF00BF00F030F9ABF1010000F0FF0BC5
:101DF000BBF1000F03D120A000F018FC36E000F08A
:101E000001F9204600F0E4F800B1EBE7284600F0C5
:101E1000DFF800B1E6E700F0F5F8611CC8B200F0A9
:101E2000D7F800B1DEE7002000F096F881460020E8
:101E300000F092F88246012000F08EF8804600F013
:101E400003F98DF805408DF80450601CC0B28DF880
:101E500003008DF802908DF801A000208DF800009D
:101E60006846FFF78BFE06464645BAD100BF49EAF1
:101E70000A273846BDE8FC9F4572726F720D0A0052
:101E80002DE9F84F82464FF0000B07215046FFF72F
:101E90009DFF0090FEF740FC8046084A084BFEF785
:101EA00044FB06464FF06632064BFEF738FB04460D
:101EB000FEF766FC83465846BDE8F88F7B14AE47B4
:101EC000E17A943F661271402DE9F84F82464FF057
:101ED000000B06215046FFF779FF0090FEF71CFC2F
:101EE0008046084A084BFEF720FB06464FF0663254
:101EF000064BFEF714FB0446FEF742FC83465846A9
:101F0000BDE8F88F7B14AE47E17A943F66127140CA
:101F100010B54FF400700F4908600220FFF732FF40
:101F20004FF480700B4908600520FFF72BFF09482C
:101F30000838006800F4007008B1012400E00024B3
:101F40004FF480700349091D08600320FFF71AFF52
:101F5000204610BD1014014070B5064608250DE05E
:101F6000FFF7D6FF20B16006040E44F0010403E041
:101F70006006040E04F0FE04681EC5B2002DEFD109
:101F8000304600F003F8204670BD000010B504464E
:101F900024B94FF400700D49086004E04FF400705C
:101FA0000A49091F08600220FFF7ECFE4FF4807019
:101FB0000649091F08600620FFF7E4FE4FF4807011
:101FC000024908600320FFF7DDFE10BD1414014034
:101FD0002DE9F041044608250CE004F0800008B12A
:101FE000012600E000263046FFF7D0FF6006040E11
:101FF000681EC5B2002DF0D1FFF78AFF07463846AC
:10200000BDE8F08110B54FF400700E49086005205E
:10201000FFF7B8FE4FF480700A4908600520FFF70B
:10202000B1FE4FF400700749091D08600520FFF755
:10203000A9FE4FF480700349091D08600520FFF7D1
:10204000A1FE10BD1014014010B54FF480700D4971
:1020500008600520FFF796FE4FF4007009490860FC
:102060000520FFF78FFE4FF480700649091F0860B6
:102070000520FFF787FE4FF400700249091F086032
:1020800010BD00001414014010B500F001F810BD9F
:102090000CB50020019000903348006840F4803077
:1020A0003149086000BF3048006800F400300090FB
:1020B0000198401C0190009818B90198B0F5A06FE4
:1020C000F1D12948006800F4003010B101200090DF
:1020D00001E0002000900098012843D123480068C7
:1020E00040F01000214908600846006820F0030015
:1020F00008600846006840F0020008601A4840681E
:10210000194948600846406848600846406840F4FD
:10211000806048600846406820F47C1048600846AB
:10212000406840F4E81048600846006840F080705D
:10213000086000BF0C48006800F000700028F9D06B
:102140000948406820F00300074948600846406895
:1021500040F00200486000BF0348406800F00C00F7
:102160000828F9D10CBD00000010024000200240F8
:1021700008B500252FE04FF0FF3001230022042195
:1021800000901548006802F003F8044604F00400CB
:1021900004281CD1022000F015FA0646032000F0A6
:1021A00011FA0746042000F00DFA8046052000F0E1
:1021B00009FA05463A46314608A000F037FA2A46A1
:1021C000414610A000F032FA18A000F02FFA4FF4A8
:1021D0007A7001F027FECEE71C00002020584A57F5
:1021E000592076616C756531203D202564206D6D28
:1021F0002C2076616C756532203D202564206D6D44
:10220000200D0A0020584A57592076616C756533B5
:10221000203D202564206D6D2C2076616C75653421
:10222000203D202564206D6D200D0A000D0A0D0A49
:1022300000000000042808D14FF0E021096941F0B6
:1022400004014FF0E022116107E04FF0E02109693D
:1022500021F004014FF0E0221161704710B502F047
:102260007DFA012801D002F011F810BD10B5134815
:10227000006840F0010011490860084640681049B4
:1022800008400E494860084600680E4908400B495E
:1022900008600846006820F480200860084640680E
:1022A00020F4FE0048604FF41F008860FFF7ECFE4A
:1022B0004FF000600449086010BD000000100240AB
:1022C0000000FFF8FFFFF6FE08ED00E08CB00020F4
:1022D00009900A9008905CE04FF0FF300123002243
:1022E000082100902B48006801F052FF044604F0DA
:1022F0000800082849D109A8FFF702FBBDF928000A
:10230000FEF7F9F907460022234BFEF70EF90546C2
:102310000022224BFEF77BF981468A46BDF9260052
:10232000FEF7E9F9074600221B4BFEF7FEF80546CB
:1023300000221A4BFEF76BF9CDE90601BDF9240026
:10234000FEF7D9F907460022134BFEF7EEF80546D3
:102350000022124BFEF75BF9CDE9029ACDE90401A8
:10236000DDE90601CDE900010DA0DDE9042300F05F
:102370005DF908A8FFF750FB0898FEF7EEF905464F
:102380002A460B4613A000F051F94FF47A7001F081
:1023900049FDA1E71C0000200000F03F0000D040F4
:1023A0000D0ABCD3CBD9B6C8A3BA2078203D2025CE
:1023B0002D362E336667A3AC79203D20252D362E91
:1023C000336667A3AC7A203D20252D362E33666711
:1023D000000000000D0ACEC2B6C8A3BA2025382ED0
:1023E0003266200D0A00000021B1828942F40052B9
:1023F000828104E082894DF6FF731A408281704722
:1024000010B500F013F800F0C7F8FFF71FF810BD83
:1024100002460020B1F5007F00D100BF13880B40B9
:102420000BB1012000E000207047000008B5012139
:102430000420FFF71DFC01218803FFF719FC04208D
:102440008DF803000002ADF8000069460848FFF768
:1024500043F818208DF803004FF40070ADF8000029
:1024600003208DF8020069460148FFF735F808BDE2
:1024700000080140F0B50346002400260025002096
:1024800040F66A17B94200D100BF1846C1F34214A2
:1024900001F01F06012707FA06F5012C01D10C30C7
:1024A00004E0022C01D1103000E014301AB10768AA
:1024B0002F43076002E00768AF430760F0BD0000EC
:1024C0002DE9F04786B005460E460024A24600BF1F
:1024D000A1460027B08900B100BF2F462C8A4CF6D8
:1024E000FF700440F08804432C82AC894EF6F31050
:1024F0000440B08831890843718908430443AC81A2
:10250000AC8A4FF6FF400440B0890443AC8201A876
:10251000FFF7CEFB1F48874202D1DDF810A001E093
:10252000DDF80CA0A88900F4004040B10AEBCA0015
:1025300000EB0A1031684900B0FBF1F807E00AEB44
:10254000CA0000EB0A1031688900B0FBF1F8642082
:10255000B8FBF0F004012009642101FB1089A8896F
:1025600000F4004040B1322000EBC900B0FBF1F0B4
:1025700000F00700044308E0322000EB091064215A
:10258000B0FBF1F000F00F0004432C8106B0BDE871
:10259000F08700000038014008B525208DF80000C4
:1025A00001208DF803008DF8010000208DF8020055
:1025B0006846FFF775FA08BDC1F3080282807047CC
:1025C00000BFFEE72DE9F14F84B000200390029098
:1025D0000498FEF73DFB039010490398FDF78EFE2B
:1025E0000190FEF7BAF880464FF066320C4BFEF7CA
:1025F0000EF8064600220B4BFDF797FF044600221B
:10260000094BFEF704F88246FEF7BAF802900298EA
:10261000FEF78FF880B205B0BDE8F08F0000A04053
:1026200066660A4000407F40000014400FB4054B2E
:1026300010B503A9044A029800F0DAF810BC5DF85E
:1026400014FB00009D2F0008AC00002002E008C829
:10265000121F08C1002AFAD170477047002001E01C
:1026600001C1121F002AFBD1704700002DE9FF5F56
:1026700082B00021DDE90430020DDDF840B00343F3
:1026800018D044F61050A2F2FF32424315141198AC
:1026900001281FD0A5EB0B00401C5FEA000A4FF099
:1026A00000064E4FDFF83891B046504615D5CAF1B6
:1026B000000413E0119801244AA3012801D16FEA14
:1026C0000B010298119AC0E90031C0E9024206B03C
:1026D000BDE8F09FCBF10000DFE704460021404A4F
:1026E000491842EB0450CDE9001012E0E00707D092
:1026F00032463B4640464946FDF717FF804689462D
:1027000032463B4610461946FDF70FFF06460F4678
:102710006410002CEAD1DDE90401DDE90023BAF1FF
:10272000000F06DAFDF701FF42464B46FDF7FDFEBE
:1027300005E0FDF76CFF42464B46FDF768FF044697
:102740000E460022284BFEF75FF903D84FF0FF300A
:10275000014607E00022254B20463146FDF73EFEAC
:10276000FEF73AF9102409E0002C0ADB0A220023C4
:10277000FEF74CF8039B30321A55641E50EA0102F2
:10278000F2D1641C039AC4F111031444119A012A72
:1027900003D0012208430DD10AE0084304D00020F1
:1027A0004FF0110B119072E7A3EB0B056D1E0DE0BE
:1027B0005B4504DD4FF0000205F1010504E003DA9A
:1027C0004FF00002A5F10105002AECD00298119902
:1027D000C0E90231C0E9004579E70000000014407B
:1027E0000000F03F300000000000F0430000E03F38
:1027F0002DE9FF4F95B09A46884606460025EEE142
:10280000252877D100242746F94A0121039400E0C6
:10281000044316F8013F203B01FA03F01042F7D1C0
:1028200030782A2811D06FF02F033078A0F13002D1
:10283000092A16D8039A44F0020402EB820203EB41
:1028400042021044761C0390EFE758F8042B0392E1
:10285000002A03DA504244F40054039044F0020486
:10286000761C30782E2816D116F8010F44F0040497
:102870002A280DD06FF02F023078A0F13003092BF9
:1028800009D807EB870302EB4303C718761CF3E76D
:1028900058F8047B761C30786C280FD006DC4C2866
:1028A00017D068280DD06A2814D104E0742810D0FD
:1028B0007A280FD10DE044F400140AE044F48014A7
:1028C00001E044F440147278824202D104F580148D
:1028D000761C761C307866280BD013DC582877D00D
:1028E00009DC002875D04528F6D04628F4D04728C2
:1028F0001AD193E118E0632835D0642879D065288F
:1029000012D18BE1702873D008DC6728F1D06928D8
:102910006FD06E280DD06F2806D1ACE073282CD074
:10292000752874D0782853D05246179990476D1C5B
:1029300054E1C4F30250022809D003280DD0D8F87E
:10294000001004280DD00D6008F1040846E1D8F805
:102950000010EA17C1E90052F6E7D8F800100D8020
:10296000F2E70D70F0E718F8041B8DF80010002056
:102970008DF80100EB46012003E058F804BB4FF04E
:10298000FF3061074FF0000102D40DE009F10101B1
:102990008946B9420FDA8145F8DB1BF80910002996
:1029A000F4D108E009F1010189468142FADB1BF804
:1029B00009100029F6D103985346A0EB09072146D8
:1029C0003846179A00F080FA284400EB090507E022
:1029D00044E008E10DE01BF8010B524617999047BF
:1029E000B9F10109F7D2534621463846179AF2E069
:1029F00039E00A21C4F302524FF0000B0091022A81
:102A000006D058F8040BC117032A09D00AE023E0C6
:102A100008F1070020F00702F2E80201904605E005
:102A200000B2C117042A01D140B2C117002906DA49
:102A30000A460021404261EB02012D2202E02205FC
:102A400004D52B228DF80420012203E0E20701D0F7
:102A50002022F7E7914657E00A2100E010214FF0CD
:102A6000000B00910BE010214FF0000B44F0040428
:102A70000827009103E008204FF0000B0090C4F3FA
:102A80000252022A05D058F8040B0021032A08D06C
:102A900008E008F1070020F00702F2E80201904682
:102AA00003E080B2042A00D1C0B24FF0000922072F
:102AB0002AD53278702A07D0DDF800C08CF0100CCF
:102AC0005CEA0B0C05D00EE040228DF804200122B8
:102AD00008E050EA010306D030238DF804308DF869
:102AE000052002229146009B83F0080353EA0B0362
:102AF0000AD150EA010201D1620705D530228DF8D2
:102B000004204FF001097F1E3278582A04D039A2E0
:102B10000C920CAA02920BE03BA2F9E75B46009AEA
:102B2000FDF774FE0C9B9B5C029A521E029213707E
:102B300050EA0102F2D1029804A9081A00F1200B10
:102B4000600702D524F4803400E001275F4502DDF0
:102B5000A7EB0B0000E0002000EB0B0100900398B6
:102B60004944401A0390E00306D453462146179A7D
:102B7000039800F0A9F90544002706E001A8524691
:102B8000C05D179990476D1C7F1C4F45F6DBE00335
:102B90000CD553462146179A039800F095F9054441
:102BA00004E030205246179990476D1C0099481E4A
:102BB00000900029F5DC08E002980299524600785E
:102BC000491C0291179990476D1CBBF10001ABF1B4
:102BD000010BF1DC5BE100F065F90544761C30780F
:102BE00000287FF40DAE19B02846BDE8F08F000034
:102BF00009280100303132333435363738396162D3
:102C00006364656600000000303132333435363796
:102C1000383941424344454600000000600700D473
:102C2000062708F1070020F00700F0E8022380469D
:102C300003F0004C5FEA0C0001D097A009E02005EA
:102C400001D596A005E0E00701D095A001E0AFF224
:102C50004C001390307823F0004365280CD006DC3C
:102C6000452809D046281DD047287FD13BE066285B
:102C700018D067287AD136E00021112F01DB11200E
:102C800000E0781CCDE9000104A90CA8FFF7EEFCD8
:102C9000DDE90D010C9A4FF0000B07F101091092CC
:102CA00000914EE04FF000400097CDE9011004A9DB
:102CB0000CA8FFF7DBFCDDE90D020C9B0F994FF030
:102CC000000B91461093009211B9791C00EB010999
:102CD000B7EB090003D4C0F1FF3B07F10109A9EBF1
:102CE0000700019042E0012F00DA01270021112F97
:102CF00001DD112000E03846CDE9000104A90CA84F
:102D0000FFF7B4FCDDE90D010C9A00914FF0000BC8
:102D1000B946109221070FD4009A4A4503DA91462A
:102D200001E0A9F10109B9F1010F05DD109AA9F13E
:102D30000101515C3029F4D0B84202DA10F1040FDD
:102D400003DA0121CDE9011010E0002803DC8344FF
:102D5000A9EB000102E0411C494500DD8946A0EBDA
:102D60000B00401C01904FF000400290200705D45A
:102D70000198484502DB4FF0FF30019000208DF8AC
:102D80004B0002980DF14B07B0F1004F25D0022007
:102D90000C902B200D90029800280CDA40420290F3
:102DA0002D200D9007E00A210298FDF719FD303122
:102DB000029007F8011D0C99481E0C900029F2DCC6
:102DC00002980028EFD1791E0D980870307800F035
:102DD000200040F0450007F8020D11A8C01BC01DDF
:102DE00002901398007800B1012000EB09010198CE
:102DF00001EBE071029801440398401A401E0390D1
:102E0000E00306D453462146179A039800F05CF875
:102E100005441398007818B15246179990476D1CD5
:102E2000E00323D553462146179A039800F04CF847
:102E300005441BE0BBF1000F07DB0098584504DD9B
:102E40001098179910F80B0001E01799302052469E
:102E5000904701980BF1010B401E05F1010501900F
:102E600004D12E205246179990476D1CB9F10001EC
:102E7000A9F10109DEDC05E017F8010B52461799AC
:102E800090476D1C0299481E02900029F4DC5346BD
:102E90002146179A03989EE62D0000002B000000A3
:102EA000200000002DE9F041044600251E4617468B
:102EB000880404D405E039462020B0476D1C641E08
:102EC000F9D52846BDE8F0812DE9F04104460025FA
:102ED0001E469046C80301D5302700E0202788040D
:102EE00004D505E041463846B0476D1C641EF9D54F
:102EF0002846BDE8F081000070B5044601F02EFCC4
:102F0000012811D00C480088844206DB0A4800885A
:102F100094FBF0F5284600F085FF0748008894FBF5
:102F2000F0F100FB114084B24FF47A7104FB01F020
:102F300000F004F870BD00003C00002070B50346AE
:102F400000224FF0E02675690D4E367803FB06F43B
:102F50004FF0E026B16910E04FF0E026B0698842FA
:102F60000BD0884202D20E1A324402E02E1A0E44CE
:102F700032440146A24200D300E0EDE700BF70BD3D
:102F80003A00002030B50446002504E04FF47A7082
:102F9000FFF7D4FF6D1CA542F8D330BD70B50446D1
:102FA0000D46E1B20548FFF707FB00BF802103484B
:102FB000FFF72EFA0028F9D0204670BD00380140F6
:102FC00010B502210A48FEF71BFB00F013F801219F
:102FD0000748FEF717FB00F00DF801210448FEF743
:102FE0000FFB00F007F802210148FEF70BFB10BDB4
:102FF00000180140002001E0411CC8B20A28FBDB98
:103000007047000008B501214020FEF731FE032083
:10301000ADF800008DF8020014208DF80300694619
:103020000248FEF759FA00F089F808BD001801407F
:1030300010B502210848FEF7E5FAFFF7DBFF012192
:103040000548FEF7DFFAFFF7D5FF01210248FEF73A
:10305000D7FAFFF7CFFF10BD0018014070B5054645
:103060000024002616E06006040E01210E48FEF73B
:10307000C9FAFFF7BFFF02210B48FEF7B8FA08B103
:10308000601CC4B201210848FEF7BAFAFFF7B2FF8C
:10309000701CC6B2082EE6DB15B9FFF7C9FF01E0C8
:1030A000FFF78EFF204670BD0018014070B5044642
:1030B000002523E004F0800020B102211148FEF732
:1030C000A1FA03E002210F48FEF79AFAFFF792FFF8
:1030D00001210C48FEF796FAFFF78CFF0121094801
:1030E000FEF78EFA072D03D102210648FEF78AFA71
:1030F0006006040EFFF77EFF681CC5B2082DD9DB01
:1031000070BD00000018014010B502210A48FEF70A
:1031100079FA01210848FEF775FAFFF76BFF0221E3
:103120000548FEF76DFAFFF765FF01210248FEF73B
:1031300067FAFFF75FFF10BD0018014010B50221CC
:103140000648FEF75DFA01210448FEF75BFAFFF737
:1031500051FF02210148FEF755FA10BD0018014049
:1031600010B502210D48FEF74DFAFFF743FF01218C
:103170000A48FEF747FAFFF73DFF02210748FEF72E
:1031800036FA08B1012400E0002401210348FEF7CB
:1031900037FAFFF72FFF204610BD0000001801404E
:1031A0000EB5FEF729F80EA0FFF740FA14481549AE
:1031B00003220023CDE900210290802212A11648AB
:1031C00001F0A4FA154908600846006810B100F043
:1031D000F5FE02E012A0FFF729FA00BFFEE70000AB
:1031E000B7C9D2EDB3B5B6D3B5E7C6F8D7E9B2E201
:1031F000CAD4B0E5BAAFCAFDB5F7CAD4210D0A00EA
:1032000078070020B00300204170705461736B4355
:103210007265617465000000990E000820000020AE
:10322000B4B4BDA8CAA7B0DC000000002DE9F0418D
:1032300005460E461C4807681C480068001D00F043
:10324000F5FC50B91948006890F82C10012088400E
:1032500017490968814316480160681C38B936B1BE
:1032600012480168091D134800F044FD1AE07C195A
:103270000E4800684460BC4207D20C480168091D32
:103280000D48006800F01CFD0CE008480168091DAD
:103290000A48006800F014FD09480068844201D221
:1032A00007480460BDE8F081700000205C00002049
:1032B00074000020605B002064000020600000209B
:1032C0008C00002010B5044600F020FD2448006862
:1032D000401C234908602348006840B92148046025
:1032E0000846006801280DD100F0D4F90AE01E4814
:1032F000006838B91B480068C06AE16A884201D892
:103300001848046019480068401C184908600846BD
:103310000068606594F82C10012088401449096801
:10332000084313490860E16A01EB8101114A02EB8D
:103330008100211D00F0DEFC00F0FAFC0A48006864
:1033400068B108480068C06AE16A884207D24FF055
:10335000805009490860BFF34F8FBFF36F8F10BDD6
:103360006C0000205C000020780000208800002015
:10337000740000209058002004ED00E008B500F033
:10338000C5FC12480068E8B9114800F089FC1148F2
:1033900000F086FC0E48104908600E480F4908608E
:1033A00000200F4B0F4A102100900A2000F088FFE8
:1033B000064908600846006820B10BA10348006870
:1033C00000F0F4FC00F0B4FC08BD0000A0000020F8
:1033D000745B0020885B0020980000209C00002087
:1033E0009C5B0020EC5B0020546D725100000000DB
:1033F00070B523E000F02CFE1348006808B90120E6
:1034000000E00020054601F0C5FABDB900F07EFCE1
:103410000D48C068C468201D00F008FC0B48006817
:10342000401E0A4908600A480068401E08490860B2
:1034300000F07EFC204600F057F800BF044800680A
:103440000028D7D170BD00004C5B00206C0000202C
:103450006800002070B504460D46206C70B1216CE8
:10346000E0680844E0606168E068884201D3206851
:10347000E0602846226CE168FCF7C4FE70BD2DE9CF
:10348000F04104460F4615464FF00008A66B206C2D
:1034900028B37DB93946226CA068FCF7B3FE216CD5
:1034A000A0680844A060D4E90110884217D32068BE
:1034B000A06014E03946226CE068FCF7A3FE216CA2
:1034C000E068401AE0602168E068884203D2216C1D
:1034D0006068401AE060022D01D106B1761E701CB2
:1034E000A0634046BDE8F08110B5044694F8610041
:1034F00030B9206B00F02CFC204600F029FC06E0DF
:1035000094F86100012802D1204600F021FC10BD92
:103510000146084A126812680AB9012200E0002236
:103520000A600A6822B9034A1268D268106800E08B
:10353000002070479800002030B54FF4A043174892
:1035400000F007042CB1C01D20F00700134C041B31
:103550001B1B0246124C22600024114D6C60D018D7
:10356000083820F007000F4C206000240D4D2D6816
:103570006C600C4D2D682C601146441A4C60094C4F
:1035800024680C60084D4C682C60084D4C682C6019
:103590004FF00044064D2C6030BD00004008002074
:1035A000440000204C000020540000205000002067
:1035B0005800002000BFFFF71BFF064800680128E5
:1035C000F9D94FF0805004490860BFF34F8FBFF323
:1035D0006F8FF0E79058002004ED00E02DE9F041F6
:1035E00006460D4617469846069C0DB9246000E035
:1035F0002760E66325640121204600F017FF84F868
:103600004C80BDE8F0812DE9F05F81460E461746FB
:103610009A46DDF828800C9CB900A522206BFCF7A7
:1036200003FE781E216B01EB800B2BF0070B0025AE
:1036300007E0715D04F134004155705D00B902E0AE
:103640006D1C202DF5D300BF002153200155B8F18A
:10365000200F01D34FF01F08C4F82C80201D00F06C
:103660002CFB04F1180000F028FB2461C8F12000B5
:10367000A06164620020E06584F86000524649461B
:10368000584600F0C1FA20600B9808B10B9804600E
:10369000BDE8F09F10B5002407E004EB84010F4A59
:1036A00002EB810000F0FCFA641C202CF5D30C48DE
:1036B00000F0F6FA0B4800F0F3FA0B4800F0F0FACD
:1036C0000A4800F0EDFA0A4800F0EAFA044809490D
:1036D000086004480849086010BD000090580020A8
:1036E000105B0020245B0020385B00204C5B002036
:1036F000605B0020600000206400002010B50146DF
:10370000164800E0006803688B42FBD3024643681A
:1037100013448B4204D143684C6823444360014600
:103720000A464B6813440468A34211D10C4C036849
:103730002468A34208D04B680468646823444B6043
:1037400003681B680B6005E0054B1B680B6001E01C
:1037500003680B60884200D0016010BD4400002067
:103760004C0000202DE9F04104460D4616461F4648
:103770004FF0000865602461B5420CD8F01BA169C8
:10378000884202D34FF0010811E0211D094800686A
:1037900000F096FA0BE0BE4204D2BD4202D34FF0D5
:1037A000010804E0211D0448006800F089FA404641
:1037B000BDE8F0819C0000209800002070B505460F
:1037C00000F0A4FAA86B08B9012400E0002400F07E
:1037D000AFFA204670BD70B5054600F097FAA86BA9
:1037E000E96B884201D1012400E0002400F0A0FA36
:1037F000204670BDF8B505460E4610480068C06802
:10380000C468201D00F012FAE069012811D1A069F6
:1038100041192B4632462046FFF7A4FF48B100204D
:1038200003462A4601460090204601F057F9074614
:1038300000BF2046616A8847F8BD0000980000205C
:10384000F0B587B059E00398002805DA04AED6E950
:103850000020B168904700BF039800284DDB059C0D
:10386000606908B9012000E0002010B9201D00F0B7
:10387000DDF902A800F0A2F8054603980A283AD21A
:10388000DFE800F00905072527320608262800BFD3
:1038900000BF00BF00BF0498A269811803462A46F2
:1038A0002046FFF75FFF88B12046616A8847E069DC
:1038B00001280BD1002000900498A1694218002330
:1038C0001946204601F00AF9074600BF14E000BF80
:1038D00012E000BF0498A061A06941192B462A4656
:1038E0002046FFF73FFF07E094F82C0010B9204670
:1038F00000F02EFA00E000BF00BF00231A4603A923
:103900000348006800F0F4FC00289CD107B0F0BD2B
:10391000A0000020F8B505460C4600F099FB68466B
:1039200000F04CF80646009820BB44B9B54206D8D2
:1039300001F030F831462846FFF75CFF1CE03CB14F
:103940000E480068006808B9012000E00020044625
:10395000A91B22460A48006800F03EFA01F01AF856
:1039600050B94FF0805007490860BFF34F8FBFF345
:103970006F8F01E001F00EF8F8BD00009C00002000
:10398000A000002004ED00E00A490968096809B9AF
:10399000012100E0002121B14FF0FF31064A116002
:1039A00006E004490968C968C868034A41681160AB
:1039B00070470000600000208C00002070B50446B5
:1039C00000F0DCFE054607480068854204D200F09E
:1039D0000BF80120206001E0002020600148056014
:1039E000284670BDA80000202DE9F84326E01D48B8
:1039F0000068C06805681B480068C068C468201D6E
:103A000000F014F92046616A8847E069012815D161
:103A1000A0694619AE4207D966602461211D11488C
:103A2000006800F04DF909E0002003462A460146EF
:103A30000090204601F052F8804600BF0948006817
:103A4000006808B9012000E000200028CFD0054818
:103A50000768054800680349086003480760BDE837
:103A6000F8830000980000209C00002000BFBF20C9
:103A700080F31188BFF34F8FBFF36F8F00BF00BF7C
:103A8000FEE710B50346002022B903EA010434B171
:103A9000012004E003EA01048C4200D1012010BDA2
:103AA00008B500BF6846FFF733FD0446204600997D
:103AB000FFF730FFFFF7C4FEF4E770B5044600F0EF
:103AC00025F994F9455010E0606A08B9012000E03A
:103AD000002038B904F1240000F0E4FE18B100F031
:103AE00021FA00E003E0681E45B2002DECDC00BFC7
:103AF000FF2084F8450000F01BF900F007F994F965
:103B0000445010E0206908B9012000E0002048B9C5
:103B100004F1100000F0C6FE08B100F003FA681EC0
:103B200045B200E001E0002DECDC00BFFF2084F88E
:103B3000440000F0FDF870BD2DE9F04105464FF05E
:103B4000000800F085FA2B48006808B9FFF7F4FC7C
:103B5000294800682840002847D145B1083505F0BC
:103B6000070020B105F00700C0F108000544002D52
:103B70003BD022480068854237D8214E3046046841
:103B800001E0264624686068A84202D22068002826
:103B9000F7D118480068844227D0306800F108083F
:103BA000206830606068401B102807D9671960687A
:103BB000401B786065603846FFF7A0FD0F496068DC
:103BC0000968081A0D490860084600680D49096827
:103BD000884203D2094800680A49086006496068BB
:103BE0000968084360600020206000F0D3FE404672
:103BF000BDE8F0814C00002058000020500000205B
:103C00004400002054000020001F4FF08073036028
:103C1000001F21F001030360001F034B03601438F1
:103C200002602038704700006D3A000801460A69BA
:103C3000D1E901309860D1E90103586050688842A9
:103C400001D188685060002008611068401E106033
:103C50001068704705490968886904490968C96A94
:103C6000C1F12001014A1268916170475C00002097
:103C7000034B0360034B0B6040231360704700004D
:103C8000B0060020B0000020034B0360034B0B6024
:103C9000802313607047000014070020B00100204B
:103CA00000F1080141604FF0FF31816000F108012F
:103CB000C16001610021016070470021016170470E
:103CC00010B502460B685C1C0CB9106907E002F1E4
:103CD000080000E04068446824689C42FAD94468BF
:103CE0004C604C68A160886041600A611468641C83
:103CF000146010BD42684A6093688B609368596095
:103D00009160086103685B1C0360704700BFBF20BF
:103D100080F31188BFF34F8FBFF36F8F00BF03484D
:103D20000068401C01490860704700004000002006
:103D300006480068401E054908600846006820B92A
:103D4000002080F3118800BF00BF704740000020B2
:103D500070B506463546D6B1083D2C460C4960681C
:103D60000968084098B1206888B9094960680968FD
:103D70008843606000F06CF906496068096808448F
:103D8000044908602046FFF7B9FC00F003FE70BD4F
:103D9000580000205000002003484FF0E021486107
:103DA00007200861704700003F190100024600200B
:103DB0000BE0084B53F8303033B9064B43F8301062
:103DC00003EBC0035A6002E0401C0A28F1D300BF95
:103DD00070470000405800202DE9F04105460E468E
:103DE00017462C46FFF792FF94F94400401C10B987
:103DF000002084F8440094F94500401C10B90020CC
:103E000084F84500FFF794FFA06B28B93A46314685
:103E100004F1240000F09CF82046FFF74EFEBDE8B8
:103E2000F081000070B50446002544B100F010F99F
:103E300000212046FFF7FAF900F0ACFD05463DB938
:103E40004FF0805003490860BFF34F8FBFF36F8F6F
:103E500070BD000004ED00E070B50546FFF756FFA9
:103E600015B92748006800E028460446201DFFF7E2
:103E7000DDFE78B9E06A00EB8000224951F82000AD
:103E800040B994F82C10012088401F4909688143EB
:103E90001D480160A06A18B104F11800FFF7C6FEC2
:103EA0001A480068401C1949086015480068844297
:103EB00009D1211D1648FFF71DFF16480068401C58
:103EC0001449086009E014480068401E124908605F
:103ED0002046FFF709FBFFF757FDFFF729FF0F48C3
:103EE000006858B106480068844207D14FF08050FE
:103EF0000B490860BFF34F8FBFF36F8F70BD000099
:103F00005C000020905800207400002088000020F1
:103F10004C5B0020680000206C000020780000202E
:103F200004ED00E001200149086070478000002096
:103F300070B505460C460548016818312846FFF75C
:103F4000BFFE01212046FFF771F970BD5C00002023
:103F500070B506460D4614460648016818313046CD
:103F6000FFF7C8FE0CB14FF0FF3521462846FFF79A
:103F70005DF970BD5C00002070B506460C46154624
:103F800044F0004006490968886105480168183115
:103F90003046FFF7AFFE01212846FFF747F970BD15
:103FA0005C00002003490968016003490968416019
:103FB00070470000840000207000002010B586B01B
:103FC00000200590049003AA04A905A8FFF750FE5D
:103FD0000022DDE904101346CDE90021029015A16D
:103FE0001648039A00F092FB1549086008460068DD
:103FF00008B1012400E00024012C02D100F03EFDB4
:104000000446012C14D100BFBF2080F31188BFF3F8
:104010004F8FBFF36F8F00BF4FF0FF30094908602B
:1040200001200949086000200849086000F014F9DF
:1040300006B010BD49444C4500000000B5350008ED
:10404000900000208C0000207800002070000020EC
:1040500002480068401C0149086070479400002035
:104060001248006818B10120114908601DE00020C5
:104070000F4908600F480068B0FA80F0C0F11F01D6
:1040800001EB81020C4B03EB8200426852684260F4
:1040900000F108024368934202D1426852684260CC
:1040A0004268D268054B1A6000BF70479400002038
:1040B0008000002074000020905800205C00002048
:1040C0002DE9F04104460E462546FFF71FFE2F68F6
:1040D0002868B0432860FFF72BFE3846BDE8F08122
:1040E00010B52020FFF728FD044634B100202060E1
:1040F000201DFFF7D5FD00202077204610BD2DE9BB
:10410000FE4F06468946002001903446009004F197
:10411000040B0BF108000290FFF79AFFDBF80C701C
:10412000206840EA0900206026E0D7F804A03D6836
:104130000020009005F07F4825F07F4508F0806062
:1041400028B92068284040B10120009005E020688F
:104150002840A84201D101200090009858B108F0F1
:10416000807010B1019828430190206840F00071E0
:10417000384600F0D7FB574602988742D5D12068D1
:1041800001998843206000F005FC2068BDE8FE8F9F
:104190002DE9FF5F80460E4617469946DDF838A0A8
:1041A00044464FF0000B00200190FFF751FF2068BC
:1041B00000904A4631460098FFF763FC039003984D
:1041C00030B1009DDA46BFB12068B043206013E0F3
:1041D000BAF1000F01D1009D0EE00FB14BF0807BD2
:1041E000B9F1000F01D04BF0806B46EA0B0152464B
:1041F000201DFFF7C1FE002500F0CCFB0290BAF1B4
:10420000000F22D0029838B94FF080501149086051
:10421000BFF34F8FBFF36F8FFFF71CFD054605F00F
:10422000007080B9FFF772FD25684A46314628467E
:10423000FFF727FC18B117B12068B0432060FFF7E3
:1042400077FD0020019025F07F45284604B0BDE8A9
:10425000F09F000004ED00E010B50A48006840F44B
:104260007F00084908600846006840F07F40086009
:10427000FFF792FD002004490860FBF777FF00205C
:1042800010BD000020ED00E04000002010B500BF90
:10429000BF2080F31188BFF34F8FBFF36F8F00BF34
:1042A00000F072FA18B14FF080500449086000BF66
:1042B000002080F3118800BF10BD000004ED00E075
:1042C0002DE9F84306460F4690461D46DDF820903E
:1042D0002C464CB1012084F846004B4642463946F4
:1042E00030460094FFF77AF92046BDE8F8830000D5
:1042F0002DE9FF4782B0054689461E464FF0000A69
:104300002C4600BFFFF702FDD4F83880B8F1000F4B
:1043100036D0E76849462046FFF79CF8B6B9A8F1C1
:104320000100A063206908B9012000E0002008BB5B
:1043300004F1100000F0B6FAE0B14FF080503A49B5
:104340000860BFF34F8FBFF36F8F13E0E760606AC1
:1043500008B9012000E0002060B904F1240000F059
:10436000A1FA38B14FF080502F490860BFF34F8F4A
:10437000BFF36F8FFFF7DCFC012006B0BDE8F087CC
:10438000049818B9FFF7D4FC0020F6E7BAF1000F43
:1043900004D16846FFF706FE4FF0010AFFF7C8FC9C
:1043A000FFF756FEFFF7B2FC94F94400401C10B929
:1043B000002084F8440094F94500401C10B9002006
:1043C00084F84500FFF7B4FC04A9684600F03EF904
:1043D000F0B92046FFF7F2F9A0B104F124000499E6
:1043E000FFF7A6FD2046FFF768FB00F0D3FA002890
:1043F00088D14FF080500C490860BFF34F8FBFF356
:104400006F8F7FE72046FFF758FB00F0C3FA79E78C
:104410002046FFF752FB00F0BDFA2046FFF7CEF929
:104420000028EED00020A8E704ED00E070B50546B6
:104430000E462C46FFF76AFCD4E90F12206801FBF8
:10444000020060600020A0632068A060E06B401E56
:10445000226C216800FB0210E060FF2084F8440019
:1044600084F845009EB9206908B9012000E00020C9
:10447000A8B904F1100000F015FA80B14FF0805097
:1044800009490860BFF34F8FBFF36F8F07E004F156
:104490001000FFF705FC04F12400FFF701FCFFF713
:1044A00047FC012070BD000004ED00E02DE9FF4352
:1044B00083B0074688461D464FF000093C4600BFC2
:1044C000FFF724FCA06BE16B884201D3022D28D1B9
:1044D0002A4641462046FEF7D2FF0646606A08B9E2
:1044E000012000E0002068B904F1240000F0DAF9AE
:1044F00088B14FF0805032490860BFF34F8FBFF34F
:104500006F8F08E03EB14FF080502D490860BFF337
:104510004F8FBFF36F8FFFF70BFC012007B0BDE893
:10452000F083059818B9FFF703FC0020F6E7B9F10E
:10453000000F04D101A8FFF735FD4FF00109FFF787
:10454000F7FBFFF785FDFFF7E1FB94F94400401C02
:1045500010B9002084F8440094F94500401C10B9BB
:10456000002084F84500FFF7E3FB05A901A800F04F
:104570006DF8F0B92046FFF72EF9A0B104F1100054
:104580000599FFF7D5FC2046FFF797FA00F002FAED
:10459000002895D14FF0805009490860BFF34F8F34
:1045A000BFF36F8F8CE72046FFF787FA00F0F2F930
:1045B00086E72046FFF781FA00F0ECF90020ADE72E
:1045C00004ED00E02DE9F05F05468A4616461F46D9
:1045D0002C4600BFBF21EFF3118081F31188BFF398
:1045E0004F8FBFF36F8F00BF8146A06BE16B884296
:1045F00001D3022F20D194F945B03A4651462046C6
:10460000FEF73DFF0BF1010070B9606A08B90120A7
:1046100000E0002068B904F1240000F043F940B143
:104620003EB10120306004E00BF1010040B284F89B
:1046300045004FF0010801E04FF0000800BF89F38A
:10464000118800BF4046BDE8F09F000070B50446E9
:104650000D46FFF75BFB124802682868401C08B94A
:10466000002619E00F4920680968884204D0606874
:10467000904201D801260FE06068101A296888422C
:1046800009D228686168511A401A28602046FFF74D
:1046900089FC002600E00126FFF74AFB304670BD8A
:1046A00070000020840000202DE9FF4F85B0804677
:1046B00089461746DDE912ABB800FFF73DFA06461A
:1046C00056B16420FFF738FA04460CB1266304E0C3
:1046D0003046FFF73DFB00E000248CB1002084F859
:1046E0006100CDE900ABCDE902403A46494640467B
:1046F000089BFEF788FF2046FEF7E4FD012501E058
:104700004FF0FF35284609B0BDE8F08F2DE9F04F96
:1047100085B00746884691469A46DDE90EB6109C5C
:10472000ACB1A6B125462E63022085F861000020B9
:1047300004A953464A46CDE900B1CDE902504146AD
:104740003846FEF760FF2846FEF7BCFD01E000207A
:104750000490049805B0BDE8F08F00000549096891
:1047600009B9012005E00449096809B9022000E0FF
:10477000002070477800002094000020014908685C
:1047800070470000700000202DE9F04100273A48F2
:104790000068002863D139480068451C3748056027
:1047A0008DB93748D0F80080364800683449086031
:1047B0003448C0F8008034480068401C3249086022
:1047C000FFF7E2F800BF3148006885423BD300BFE5
:1047D0002B480068006808B9012000E0002020B1E3
:1047E0004FF0FF30294908602CE025480068C06878
:1047F000C4686668B54202D22448066022E0201DE3
:10480000FFF714FAA06A18B104F11800FFF70EFAC6
:1048100094F82C10012088401D49096808431C4960
:104820000860E16A01EB81011A4A02EB8100211D57
:10483000FFF760FA1849E06A0968C96A8842C7D375
:104840000127C5E700BF14480068C06A00EB80007C
:10485000104951F82000012800D9012704E00F4831
:104860000068401C0D4908600D48006800B1012730
:104870003846BDE8F0810000940000207000002060
:104880006000002064000020840000208C000020D4
:1048900074000020905800205C0000207C00002064
:1048A0008000002070B50646F068C46804F1180066
:1048B000FFF7BCF915480068A8B9201DFFF7B6F945
:1048C00094F82C10012088401149096808431049C8
:1048D0000860E16A01EB81010E4A02EB8100211DB3
:1048E000FFF708FA04E004F118010B48FFF702FA99
:1048F0000A49E06A0968C96A884204D90125012089
:104900000749086000E00025284670BD940000209B
:104910007400002090580020385B00205C000020CC
:10492000800000202DE9F04105460F4647F0004089
:104930002860EC682846FFF779F9201DFFF776F923
:1049400094F82C10012088400E49096808430D494D
:104950000860E16A01EB81010B4A02EB8100211D35
:10496000FFF7C8F90949E06A0968C96A884204D9A9
:10497000012601200649086000E000263046BDE817
:10498000F081000074000020905800205C0000209E
:104990008000002070B500240026FFF7B7F92E48EC
:1049A0000068401E2C4908600846006800284FD166
:1049B0002A48006800284BD024E02948C068C46811
:1049C00004F11800FFF732F9201DFFF72FF994F8D2
:1049D0002C100120884023490968084321490860B8
:1049E000E16A01EB8101204A02EB8100211DFFF702
:1049F00081F91E49E06A0968C96A884202D3012028
:104A00001B4908601648006808B9012000E0002032
:104A10000028D2D00CB1FEF7B7FF1648056865B183
:104A200000BFFFF7B1FE10B10120114908606D1EF3
:104A3000002DF6D100200F4908600D48006838B1FC
:104A4000012630070C490860BFF34F8FBFF36F8F0B
:104A5000FFF76EF9304670BD940000206C00002016
:104A6000385B002074000020905800205C0000207B
:104A7000800000207C00002004ED00E010B586B02E
:104A80000024FEF77BFC10480068D0B100200590A0
:104A9000049003AA04A905A8FFF7F6F81F22DDE990
:104AA00004100023CDE90021029008A10948039ACF
:104AB000FFF72CFE084908600846006800B1012491
:104AC00000BF204606B010BDA0000020546D72202B
:104AD00053766300A13A0008A40000202DE9FF47A7
:104AE00005460C4616461F46DDF830804FF000099B
:104AF0001448006810B3009401960295062C15DA4C
:104B0000FFF72CFE022808D10023424669460D48D3
:104B10000068FFF7CBFC814610E000231A46694687
:104B200008480068FFF7C2FC814607E000233A46C8
:104B3000694604480068FFF745FD8146484604B0D1
:104B4000BDE8F087A0000020684B000800000020AE
:104B5000B00000004C260008184C0008B0000020EF
:104B6000E06300005C26000800000000010203046E
:104B700001020304060708090204060801000000F8
:104B80000000000000000000000000000000000025
:104B90000000000000000000000000000000000015
:104BA0000000000000000000AAAAAAAA000000005D
:104BB00000000000000000000000000000000000F5
:104BC00000000000000000000000000000000000E5
:104BD00000000000000000000000000000000000D5
:104BE00000000000000000000000000000000000C5
:104BF00000000000000000000000000000000000B5
:104C000000000000000000000000000000000000A4
:084C100000000000000000009C
:0400000508000131BD
:00000001FF
